:100000000C94C7000C94ED000C94ED000C94ED00E2
:100010000C94ED000C94ED000C94C0080C94ED00D1
:100020000C94ED000C94ED000C94ED000C94860EF5
:100030000C94ED000C94ED000C94E60D0C94ED0086
:100040000C94ED000C94ED000C94ED000C94ED007C
:100050000C94ED000C94ED000C94ED000C94A80EA3
:100060000C94ED000C94ED0023099F09F708ED08AE
:10007000F408810976090410E80EE80E01100D104D
:10008000FD0F141010101810D10FA30F6E616E0029
:10009000696E660000407A10F35A00A0724E18098B
:1000A0000010A5D4E80000E87648170000E40B54DF
:1000B000020000CA9A3B000000E1F50500008096AE
:1000C0009800000040420F000000A08601000000E0
:1000D000102700000000E80300000000640000009A
:1000E00000000A00000000000100000000002C7663
:1000F000D888DC674F0823DFC1DFAE59E1B1B7967E
:10010000E5E3E453C63AE651997696E8E6C28426DA
:10011000EB898C9B62ED407C6FFCEFBC9C9F40F2B6
:10012000BAA56FA5F490055A2AF75C936B6CF96732
:100130006DC11BFCE0E40D47FEF520E6B500D0EDF7
:10014000902E0300943577050080841E080000205F
:100150004E0A000000C80C333333330F986E1283FD
:100160001141EF8D2114893BE65516CFFEE6DB18D1
:10017000D1844B381BF77C1D901DA4BBE424203296
:1001800084725E228100C9F124ECA1E53D2711248F
:100190001FBECFEFD8E0DEBFCDBF14BE88E10FB6E3
:1001A000F89480936000109260000FBE11E0A0E010
:1001B000B1E0EEE7F3E302C005900D92AC32B10777
:1001C000D9F713E0ACE2B1E001C01D92A037B1074E
:1001D000E1F70E94C2140C94BD190C9400008093A6
:1001E000C6008091C00085FFFCCF80E090E00895BC
:1001F0008091180190911901FC01E752FF4F208175
:10020000211103C083539F4F089580E090E008952B
:100210001F93CF93DF932091180130911901A90109
:1002200045525E4FDA01EC91E901B0E1EB9FC00D60
:10023000D11D1124C652DF4F1CE0FC01DE010190EC
:100240000D921A95E1F7FB0180819181A281B38122
:100250008C879D87AE87BF87DA018C9190E00196ED
:100260008F7099278C93F901E652FE4F2081281751
:1002700021F0DF91CF911F91089501968F709927FA
:10028000808385E291E0DF91CF911F910C94C81893
:10029000CF93DF93809165038F5F0E94FF0A809167
:1002A000180190911901FC01E752FF4F1082FC01E7
:1002B000E853FF4F11821082FC01E453FF4F10827C
:1002C000FC01E553FF4F21E0208330916503FC01E1
:1002D000E653FF4F30FF3FC022E0208381E20E94BF
:1002E000620EC0911801D0911901FE01E752FF4F33
:1002F00081E08083FE01EA52FF4F10823091650356
:1003000020916603CE0183539F4FFC013083FE0191
:10031000E253FF4F2083FE01E153FF4FDE01A8535C
:10032000BF4F2C912083FE01E053FF4FDE01A55308
:10033000BF4F2C9120830E94AB10C952DF4F99838D
:100340008883E0911801F0911901E752FF4F108264
:10035000DF91CF910895208382E10E94620EC1CF88
:10036000F894519A8CE090E09093C5008093C4007B
:10037000E0ECF0E080818D7F8083E2ECF0E0808132
:1003800086608083E1ECF0E080818860808380E09B
:1003900091E090936D0380936C0378940895E091BD
:1003A0001801F0911901E553FF4F80830895E09102
:1003B0001801F0911901E553FF4F808190E00895F5
:1003C000E0911801F0911901E453FF4F80830895E3
:1003D000E0911801F0911901E453FF4F808190E002
:1003E0000895E0911801F0911901E653FF4F8083C1
:1003F0000895CF92DF92EF92FF920F931F93CF93C6
:10040000DF932091180130911901F901E652FE4F56
:10041000808140E1849FC0011124EC01C652DF4F6E
:10042000C20FD31F098110E0102F00274881042B31
:100430008A519F4F820F931F0E941F0BA09118019A
:10044000B09119016D0198ECC90ED11CF601E08044
:10045000F1801E141F040CF069C02D913C9111977E
:100460002017310709F45DC090E013C0A901440FC3
:10047000551F220F331F220F331F220F331FFA0184
:10048000E20FF31FEA0FFB1F608171816017710794
:10049000E1F09F5F292F30E02E153F053CF32E152C
:1004A0003F0551F4F3E1EF16F10484F5A9014F5F24
:1004B0005F4FF60151834083A901440F551F220F5E
:1004C000331F220F331F220F331FFA01E20FF31FD6
:1004D000EA0FFB1F1183008340912F0350913003DB
:1004E000609131037091320346835783608771872F
:1004F00082838A8185838B818483DF91CF911F9151
:100500000F91FF90EF90DF90CF900895A701440FD7
:10051000551F9701220F331F220F331F220F331F46
:10052000D4CF40E050E020E030E0CFCFEF28C9F753
:1005300020E030E0BBCFEF92FF920F931F93CF9359
:10054000DF932091180130911901890108531F4F41
:10055000F801F080FA94F7FC46C0EAE0EE2E8091B4
:100560002F0390913003A0913103B09132034F2DAE
:10057000552747FD5095EA01CC0FDD1F440F551F4D
:10058000440F551F440F551FC40FD51FC20FD31F53
:100590004E815F8168857985841B950BA60BB70B0F
:1005A00081309440A105B105D8F0F8018081918196
:1005B0000197FC01EE0FFF1FAC01440F551F440FC4
:1005C000551F440F551FE40FF51FE20FF31FDE0107
:1005D0004E2D01900D924A95E1F7F80191838083A9
:1005E000FA94F7FEBCCFDF91CF911F910F91FF904E
:1005F000EF900895CF93DF93C0911801D091190126
:10060000FE01E752FF4F81E08083FE01EA52FF4F77
:1006100010823091650320916603CE0183539F4F72
:10062000FC013083FE01E253FF4F2083FE01E153C2
:10063000FF4FDE01A853BF4F2C912083FE01E053F2
:10064000FF4FDE01A553BF4F2C9120830E94AB10BA
:10065000C952DF4F99838883E0911801F091190105
:10066000E752FF4F1082DF91CF910895CF92DF9232
:10067000EF92FF920F931F93CF93DF93E0901801B7
:10068000F0901901F701E652FE4F8081F701E55223
:10069000FE4F9081891709F4ECC020E1829FC001D0
:1006A0001124EC01C652DF4FCE0DDF1DC980D12CC5
:1006B000DC2CCC242881C22A8A519F4F8E0D9F1D8D
:1006C0000E941F0BA0911801B09119017D0198ECB7
:1006D000E90EF11CF70100811181101611060CF0D2
:1006E000CEC02D913C911197C216D30609F4BCC01F
:1006F00090E013C0A901440F551F220F331F220F92
:10070000331F220F331FFA01E20FF31FEA0FFB1F03
:1007100060817181C616D706E1F09F5F292F30E016
:10072000201731073CF32017310751F4033111052D
:100730000CF08FC089010F5F1F4FF70111830083F9
:10074000A901440F551F220F331F220F331F220F01
:10075000331FFA01E20FF31FEA0FFB1FD182C082A1
:1007600040912F0350913003609131037091320317
:10077000468357836087718782838A8185838B81D3
:100780008483FD01E652FE4F208130E02F5F3F4F12
:100790002F703327822F2083FD01E552FE4F908179
:1007A0007D0192137ACFDD24DA94D00ED7FC48C0B5
:1007B000E701C853DF4F4AE0C42E40912F03509108
:1007C000300360913103709132038D2D992787FD9D
:1007D0009095DC01AA0FBB1F880F991F880F991FE6
:1007E000880F991FA80FB91FAE0DBF1D16960D914A
:1007F0001D912D913C911997401B510B620B730B6E
:100800004130544061057105C0F08881998101979C
:10081000FC01EE0FFF1F9C01220F331F220F331F1D
:10082000220F331FE20FF31FEE0DFF1D2C2D019041
:100830000D922A95E1F799838883DA94D7FEBDCF8C
:10084000DF91CF911F910F91FF90EF90DF90CF90AC
:100850000895A801440F551F9801220F331F220F3E
:10086000331F220F331F75CF40E050E020E030E00F
:1008700070CFF701E853FF4F0081118194CF01152C
:10088000110591F720E030E055CF1F93CF93DF9310
:10089000A0911801B0911901FD01E853FF4FC081EB
:1008A000D1811C161D060CF52D913C91119728172E
:1008B000390701F110E013C0A901440F551F220FA1
:1008C000331F220F331F220F331FFA01E20FF31FD2
:1008D000EA0FFB1F608171816817790779F01F5F4C
:1008E000212F30E02C173D073CF38FEFDF91CF91A4
:1008F0001F91089540E050E020E030E0FA01E20F5F
:10090000F31FEA0FFB1F8281DF91CF911F910895A2
:100910004091180150911901FA01E853FF4F60818D
:10092000718116161706E4F420E030E08AE590E0C5
:10093000F901EE0FFF1F220F331F220F331F220F6B
:10094000331FE20FF31FE40FF51F2281281708F46D
:10095000822F9F5F292F30E0261737074CF3089529
:100960008AE508956091180170911901FB01E8531F
:10097000FF4F4081518114161506ECF420E030E061
:100980008AE590E0F901EE0FFF1F220F331F220FBF
:10099000331F220F331FE20FF31FE60FF71F2281D1
:1009A000281710F490FF822F9F5F292F30E0241723
:1009B000350744F308958AE5089560911801709110
:1009C0001901FB01E853FF4F4081518114161506B0
:1009D000ECF420E030E08AE590E0F901EE0FFF1F33
:1009E000220F331F220F331F220F331FE20FF31F7B
:1009F000E60FF71F2281281710F490FD822F9F5FCA
:100A0000292F30E02417350744F308958AE5089527
:100A10002091180130911901F901E853FF4F4081ED
:100A2000518180E090E0141615061CF570E0A0E0FE
:100A300060E0FC01EE0FFF1F880F991F880F991FC0
:100A4000880F991FE80FF91FE20FF31F808180FFC5
:100A500004C0A1110FC071E003C071110BC0A1E06F
:100A60006F5F862F90E0841795071CF380E090E07D
:100A70000895089581E090E00895EF92FF920F931A
:100A80001F93CF93DF932091180130911901F90141
:100A9000E853FF4F40815181141615060CF0F1C048
:100AA00070E0A0E060E080E090E0FC01EE0FFF1F4E
:100AB000880F991F880F991F880F991FE80FF91F3A
:100AC000E20FF31F808180FF04C0A11144C071E0D8
:100AD00003C0711140C0A1E06F5F862F90E08417C2
:100AE00095071CF360E07AE580E090E0FC01EE0FF2
:100AF000FF1F880F991F880F991F880F991FE80FF4
:100B0000F91FE20FF31F8281871708F4782F6F5FB8
:100B1000862F90E0841795074CF37E3208F0B1C021
:100B2000F901E453FF4F8081823009F4E2C060E0B4
:100B3000809169030E94370AE0911801F091190130
:100B4000E453FF4F81E08083DF91CF911F910F919C
:100B5000FF90EF90089560E07AE580E090E0FC017E
:100B6000EE0FFF1F880F991F880F991F880F991F7D
:100B7000E80FF91FE20FF31F8281871710F460FF5F
:100B8000782F6F5F862F90E08417950744F3E72E48
:100B9000F12C60E00AE580E090E0FC01EE0FFF1F21
:100BA000880F991F880F991F880F991FE80FF91F49
:100BB000E20FF31F8281801710F460FD082F6F5F32
:100BC000862F90E08417950744F310E0E801CE19D2
:100BD000DF09CD30D105ACF0F901E453FF4F80813E
:100BE000813009F489C06091550380E00E94370A82
:100BF0002091180130911901F901E453FF4F82E06F
:100C00008083E01AF10A8DE0E816F104ACF0F901F6
:100C1000E453FF4F8081823009F468C060E0809126
:100C200069030E94370A2091180130911901F901D6
:100C3000E453FF4F81E080832C972CF08CE0E81682
:100C4000F1040CF081CFF901E453FF4F8081813032
:100C500091F10E943C0A60E0809169030E94370A8A
:100C6000E0911801F0911901E453FF4F81E0808376
:100C700084E0DF91CF911F910F91FF90EF900C9442
:100C8000620EF901E453FF4F8081813061F1609180
:100C9000550380E00E94370AE0911801F091190194
:100CA000E453FF4F82E08083DF91CF911F910F913A
:100CB000FF90EF9008950E943C0A6091550380E0F8
:100CC0000E94370AE0911801F0911901E453FF4F97
:100CD00082E0808381E0DF91CF911F910F91FF909F
:100CE000EF900C94620E0E943C0AD1CF0E943C0A05
:100CF00095CF0E943C0A1BCF0E943C0A74CFCF9232
:100D0000DF92EF92FF920F931F93CF93DF93E090C8
:100D10001801F0901901F701E652FE4F8081F701AA
:100D2000E552FE4F9081891709F433C120E1829F7B
:100D3000C0011124EC01C652DF4FCE0DDF1DC9806A
:100D4000D12CDC2CCC242881C22A8A519F4F8E0DB5
:100D50009F1D0E941F0BA0911801B09119017D01E8
:100D600098ECE90EF11CF7010081118110161106B3
:100D70000CF015C12D913C911197C216D30609F4C0
:100D8000F5C090E013C0A901440F551F220F331F77
:100D9000220F331F220F331FFA01E20FF31FEA0F56
:100DA000FB1F60817181C616D706E1F09F5F292F76
:100DB00030E0201731073CF32017310751F403319D
:100DC00011050CF0C8C089010F5F1F4FF701118397
:100DD0000083A901440F551F220F331F220F331F19
:100DE000220F331FFA01E20FF31FEA0FFB1FD1821C
:100DF000C08240912F035091300360913103709174
:100E00003203468357836087718782838A81858313
:100E10008B818483FD01E652FE4F208130E02F5FFD
:100E20003F4F2F703327822F2083FD01E552FE4F65
:100E300090817D0129137ACFDD24DA94D00ED7FC7E
:100E400048C0E701C853DF4F4AE0C42E40912F034A
:100E50005091300360913103709132038D2D9927A9
:100E600087FD9095DC01AA0FBB1F880F991F880F83
:100E7000991F880F991FA80FB91FAE0DBF1D169699
:100E80000D911D912D913C911997401B510B620BB7
:100E9000730B4130544061057105C0F08881998120
:100EA0000197FC01EE0FFF1F9C01220F331F220F41
:100EB000331F220F331FE20FF31FEE0DFF1D2C2DEA
:100EC00001900D922A95E1F799838883DA94D7FEF1
:100ED000BDCF8091650390916603009709F44BC0E4
:100EE000382F292FF701E752FF4F81E08083F70168
:100EF000EA52FF4F1082C70183539F4FFC0130839A
:100F0000F701E253FF4F2083F701E153FF4FD70171
:100F1000A853BF4F2C912083F701E053FF4FD70117
:100F2000A553BF4F2C9120830E94AB10F701E952CB
:100F3000FF4F91838083E0911801F0911901E752EE
:100F4000FF4F1082DF91CF911F910F91FF90EF9093
:100F5000DF90CF900895A801440F551F9801220FEC
:100F6000331F220F331F220F331F3CCF40E050E0CE
:100F700020E030E037CF83E00E94620E0E943D0502
:100F80003091650320916603E0901801F0901901FB
:100F9000A9CFF701E853FF4F008111814DCF011513
:100FA000110521F720E030E00ECF0895089580E08C
:100FB00090E008950895DF92EF92FF920F931F93B0
:100FC000CF93DF93F89414B817B81AB815B818B8B7
:100FD0001BB8529A5A9A14BC85E085BD8FEF87BD25
:100FE00022E020936E0010928000109281008FE822
:100FF0009BE0909389008093880020936F00539822
:10100000239881EA8093B0002093B1001092B4003D
:101010001092B3008BE080BF83E080937F0086E076
:1010200080937C0083E880937A0080917A008064CA
:1010300080937A0080917A0086FDFCCF10927C002C
:1010400083EA80937A0081E080937B0081E090E0E6
:101050000E9453198F3F11F0809366001092330362
:10106000C1E0C0930C03C093500310922A03109266
:10107000640380E990E00E945319809329038091D2
:101080002903887311F0C09329031092540310921E
:1010900053038FEF90E0909352038093510310928B
:1010A0002F0310923003109231031092320381E02B
:1010B00080932F0182E49FE0909363038093620307
:1010C00080EB90E00E945319C82F81EB90E00E94C2
:1010D00053192C2F30E0382B30936603209365038F
:1010E00085E090E00E9453198093690389E090E0C5
:1010F0000E945319809355038CE090E00E9453198D
:101100008093670384E190E00E9453198093680301
:1011100054E3E52E53E0F52E0DE013E0C0E2D0E0FD
:10112000CE010E945319D82ECE0101960E94531968
:101130002D2D30E0322F2227282BF70121933193D8
:101140007F01CE01C0960E945319D82ECE01C196C0
:101150000E9453192D2D30E0322F2227282BF80121
:10116000219331938F012296CC33D105C9F678941F
:10117000DF91CF911F910F91FF90EF90DF90089535
:101180001F920F920FB60F9211248F9388E10FB622
:10119000F89480936000109260000FBE8F910F90C2
:1011A0000FBE0F901F9018957C01EB01D12C882465
:1011B0008A9464E0B62E76E0972EE3E8AE2E08E13E
:1011C00010E0F9E2CF2EE0912F01F0E0E730F105D9
:1011D000D0F7EC5CFF4F0C944115DD2009F4FDC005
:1011E000B0922F01DD24D394FE010995ECCF8091BC
:1011F00033038111EBC0F89490927C00A0927A00A6
:1012000080917A00806480937A0080917A0086FDD4
:10121000FCCF209178003091790078942B3A92E0BD
:1012200039070CF0EDC02938E2E03E070CF0EFC0C2
:10123000273632400CF4CAC0559A549A3B9A3A9ACF
:101240003D983C98C0CFF89480B7877F80BF80914D
:101250007A008F7780937A0014B817B81AB815B847
:1012600018B81BB80FB6F894A895009360000FBE8D
:10127000C09260008091600080648093600083B7BA
:10128000817F846083BFF89483B7816083BF789443
:10129000889583B78E7F83BF789410923303529AD8
:1012A0005A9A80917A00806880937A0087E592E06C
:1012B0000197F1F700C0000080B7886180BF559AA0
:1012C000549A3B9A3A9A3D9A3C9AEFE1FEE4319760
:1012D000F1F700C0000080913303811181C055985F
:1012E00054983B983A983D983C986DCF80912D0149
:1012F000811141C01092B3001092B40010922E01DF
:1013000062CF4899ECCF559A54983B983A983D98BB
:101310003C988FEC97E00197F1F700C000005598DA
:1013200054983B983A983D983C989FEFE1EEF4E052
:101330009150E040F040E1F700C0000044CF5598E4
:1013400054983B9A3A9A3D983C98EFECF7E03197E5
:10135000F1F700C00000559854983B983A983D9892
:101360003C98FFEF21EE84E0F15020408040E1F70F
:1013700000C0000028CF90912D0180912E01981778
:1013800009F421CF80912D0180932E0180912D01B0
:10139000813009F450C080912D011092B3008092E9
:1013A000B4008230D9F18092B3008092B4008FE211
:1013B00095E70197F1F700C00000809168039091D4
:1013C00067039093B3008093B400FDCE559A549A6E
:1013D0003B983A983D983C98F6CEF701099500CF96
:1013E000559A549A3B983A983D983C98FFEF20E7DD
:1013F00082E0F15020408040E1F700C000006FCF54
:10140000559854983B9A3A9A3D983C98DCCE55981A
:1014100054983B983A983D9A3C9AD5CEEFE2F5E73E
:101420003197F1F700C00000809155031092B3008E
:101430008093B400C8CE8092B3001092B4008FE2C3
:1014400095E70197F1F700C0000080916903809350
:10145000B3001092B400B7CE07C0EFECF7E03197BD
:10146000F1F700C0000001970097B9F70895809345
:10147000B3006093B40008958FEF8093B30080931E
:10148000B4008FE090E0EFECF7E03197F1F700C0A7
:10149000000001970097B9F70895809133038111F7
:1014A0001EC0F89487E080937C0083E880937A00E4
:1014B00080917A00806480937A0080917A0086FD22
:1014C000FCCF809178009091790010927C0023EA03
:1014D00020937A0021E020937B00789408958FEF89
:1014E0009FEF08958091330381111EC0F89488EC1A
:1014F00080937C0087E880937A0080917A008064F2
:1015000080937A0080917A0086FDFCCF80917800EC
:101510009091790010927C0023EA20937A0021E0D8
:1015200020937B00789408958FEF9FEF08951F9389
:10153000CF93DF9360E070E080E013EAD1E0C6E093
:10154000B3E8E1E0F0E020E830E0F894C0937C00FC
:10155000B0937A0090917A00906490937A00909181
:101560007A0096FDFCCF4091780050917900A42F2D
:10157000A17090917A00906490937A0090917A0093
:1015800096FDFCCF409178005091790010927C003C
:1015900010937A00D0937B0078944170A41305C017
:1015A000215031092115310581F6AA2339F09F0117
:1015B000062E01C0220F0A94EAF7822B6F5F7F4F3D
:1015C0006830710509F0BFCFDF91CF911F91089569
:1015D00080911A01982F990F990F990F9827809150
:1015E0002C0121E0280F20932C01869586958927D0
:1015F000929596959770892780931A010895809304
:101600001A01089580913303811116C0F89486E081
:1016100080937C0083E880937A0080917A008064D4
:1016200080937A0080917A0086FDFCCF80917800CB
:1016300090917900789408958FEF9FEF08952F92FD
:101640003F924F925F926F927F928F929F92AF9252
:10165000BF92CF92DF92EF92FF920F931F93CF939F
:10166000DF9300D000D000D0CDB7DEB78C01DC0115
:1016700012960D90BC91A02DBE83AD83A438E3E0FB
:10168000BE070CF0CAC080910D0390910E038A171B
:101690009B0708F4A9C160900F03709010036A16AD
:1016A0007B0608F427C260901103709012036A163B
:1016B0007B0608F428C260901303709014036A1626
:1016C0007B0608F429C260901503709016036A1611
:1016D0007B0608F42AC260901703709018036A16FC
:1016E0007B0608F48BC16090190370901A036A1688
:1016F0007B0608F423C260901B0370901C036A16DB
:101700007B0608F424C260901D0370901E036A16C5
:101710007B0608F425C260901F03709020036A16B0
:101720007B0608F426C260902103709022036A169B
:101730007B0608F427C260902303709024036A1686
:101740007B0608F42DC260902503709026036A166C
:101750007B0608F42EC260902703709028036A1657
:101760007B0608F42FC280E090E0A0EDB0E489830E
:101770009A83AB83BC838CE0E82EF12CF701EE0F4B
:10178000FF1FE35FFC4F80819181B301681B790BE0
:1017900080E090E00E9459169B01AC010E945C150C
:1017A0006B017C01AD81BE81BD01882777FD8095ED
:1017B000982F0E945B164B015C01B30180E090E022
:1017C0000E9459162B013C0129813A814B815C8191
:1017D000C701B6010E94E7169B01AC01C301B2012B
:1017E0000E945B159B01AC01C501B4010E945B1511
:1017F00020E030E040E251E40E94E7160E94281603
:101800005B01C701B6010E942816AB01BC01C501EE
:10181000BA010E94F614762EE8C077247A94D80193
:10182000AD90BC9080913403909135038A159B054F
:1018300008F46FC000913603109137030A151B0599
:1018400008F45CC100913803109139030A151B0597
:1018500008F45DC100913A0310913B030A151B0582
:1018600008F45EC100913C0310913D030A151B056D
:1018700008F45FC100913E0310913F030A151B0558
:1018800008F4D8C000914003109141030A151B05CC
:1018900008F458C100914203109143030A151B0537
:1018A00008F459C100914403109145030A151B0522
:1018B00008F45AC100914603109147030A151B050D
:1018C00008F45BC100914803109149030A151B05F8
:1018D00008F45CC100914A0310914B030A151B05E3
:1018E00008F459C100914C0310914D030A151B05D2
:1018F00008F45AC100914E0310914F030A151B05BD
:1019000008F45BC11AE5BFEF7B1207C081E2810FCB
:1019100052C010E0BFEF7B16C9F3ED81FE81BF011D
:10192000882777FD8095982F0E945B166B017C01BC
:10193000672D70E080E090E00E9459164B015C0139
:10194000A701960160E070E081E694E40E945B15D7
:101950009B01AC01C501B4010E94E7164B015C017B
:10196000612F70E080E090E00E9459162B013C014D
:1019700020E030E04FE254E4C701B6010E945B155D
:101980009B01AC01C301B2010E94E7169B01AC01AF
:10199000C501B4010E945C1520E030E048E453E446
:1019A0000E94C01520E030E044E052E40E945C1543
:1019B0000E942D16862F26960FB6F894DEBF0FBE16
:1019C000CDBFDF91CF911F910F91FF90EF90DF90EE
:1019D000CF90BF90AF909F908F907F906F905F90CF
:1019E0004F903F902F900895712CED81FE81ED3B3B
:1019F000F2400CF014CF81E2870DDDCF65E085E089
:101A000090E07C01F1E0EF1AF10870E080E090E0F6
:101A10000E94591620E030E040E05FE30E94E716A4
:101A200020E030E0A9010E945C1569837A838B83F2
:101A30009C83A4CE75E0672EE5E0F0E0EE0FFF1F7B
:101A4000EE5CFC4F80819181B801681B790B80E0CE
:101A500090E00E9459169B01AC010E945C156B013D
:101A60007C01B501882777FD8095982F0E945B1631
:101A70004B015C01B80180E090E00E9459161B0107
:101A80002C01662D70E080E090E00E94591620E065
:101A900030E040E05FE30E94E71620E030E0A9017B
:101AA0000E945C15A70196010E94E7169B01AC01FC
:101AB000C201B1010E945B159B01AC01C501B401DB
:101AC0000E945B1520E030E040E251E40E94E716FE
:101AD0000E9428168B01C701B6010E942816AB018F
:101AE000BC01C801BA010E94F614162F6F3F09F01D
:101AF00011CF81CF61E081E090E083CF66246394D1
:101B0000E1E0F0E09BCF62E082E090E07ACFA2E0FB
:101B10006A2EE2E0F0E092CF63E083E090E071CFE4
:101B2000F3E06F2EE3E0F0E089CF64E084E090E042
:101B300068CFE4E06E2EE4E0F0E080CF66E086E07F
:101B400090E05FCF66E0662EE6E0F0E077CF67E0FA
:101B500087E090E056CF57E0652EE7E0F0E06ECFEB
:101B600068E088E090E04DCF48E0642EE8E0F0E0E7
:101B700065CF69E089E090E044CF39E0632EE9E089
:101B8000F0E05CCF6AE08AE090E03BCF2AE0622E92
:101B9000EAE0F0E053CF9BE0692EEBE0F0E04ECFBF
:101BA0006BE08BE090E02DCF8CE0682EECE0F0E075
:101BB00045CF6CE08CE090E024CFBDE06B2EEDE0F3
:101BC000F0E03CCF6DE08DE090E01BCF1F920F92D4
:101BD0000FB60F9211242F933F934F935F936F9300
:101BE0007F938F939F93AF93BF93EF93FF938091D6
:101BF0005303909154032091510330915203820F6B
:101C0000931F90935403809353038FEF90E090932E
:101C10005203809351038FEF87BD80912F039091E2
:101C20003003A0913103B09132030196A11DB11D83
:101C300080932F0390933003A0933103B09332032A
:101C40008091330381110FC08091620390916303EF
:101C500020915303309154038217930720F480910D
:101C60002F01843089F0FF91EF91BF91AF919F9147
:101C70008F917F916F915F914F913F912F910F9035
:101C80000FBE0F901F901895E0911D01F0911E015D
:101C90000995009741F30E94C410811109C00E9468
:101CA00098179927909352038093510387BDDBCFF8
:101CB000E0911B01F0911C010995109254031092C0
:101CC0005303D1CF80FF11C0559A81FF11C0549AA0
:101CD00082FF11C03B9A83FF11C03A9A84FF11C062
:101CE0003D9A85FD11C03C980895559881FDEFCF30
:101CF000549882FDEFCF3B9883FDEFCF3A9884FD57
:101D0000EFCF3D9885FFEFCF3C9A08951F920F9239
:101D10000FB60F9211248F939F931092810010920F
:101D200085001092840081E080930C03809350031F
:101D30001092330310927C0093EA90937A00809380
:101D40007B009F918F910F900FBE0F901F90189561
:101D50001F920F920FB60F9211242F933F934F9320
:101D60005F936F937F938F939F93AF93BF93CF9323
:101D7000DF93EF93FF93209184003091850041E041
:101D80004093330380910C038823A9F110928500BE
:101D900010928400409381001092640310920C030F
:101DA000809150038823A1F080917A0086FDFCCFBA
:101DB000809178009091790090932E0380932D0369
:101DC00081E080937C0093EA90937A0080937B007B
:101DD000FF91EF91DF91CF91BF91AF919F918F9143
:101DE0007F916F915F914F913F912F910F900FBE17
:101DF0000F901F901895C901875891098437994011
:101E000008F04FC026583109A4EFB0E00E94E71453
:101E1000AA27BB27883008F47BC040930C0380912D
:101E20005003811152C080912A03E82FF0E0EA5A52
:101E3000FC4F9091640390838F5F80932A038C30D2
:101E400039F6109281001092850010928400409320
:101E5000500310923303C0916003D091610386E573
:101E600093E00E94AB10C817D90709F0B1CF809159
:101E70005F0387FF5EC098E7980F933030F0539868
:101E800023981092B4001092B30090E0FC01E05847
:101E9000F109EB30F10508F09BCFE55CFF4F0C94A6
:101EA0004115109281001092850010928400409399
:101EB0000C03409350031092330310927C0083EA8A
:101EC00080937A0040937B0083CF80917A0086FDD7
:101ED000FCCF809178009091790090932C038093AF
:101EE0002B0310927C0083EA80937A0081E0809338
:101EF0007B00909164039923B9F0109281001092B5
:101F0000850010928400809350031092330360CFB9
:101F100021E030E001C0220F8A95EAF78091640346
:101F2000822B8093640354CF1092500310922A03A3
:101F30004FCFE0911F01F09120016BE273E086E545
:101F400093E0099545CF80915603823009F4DCC0B7
:101F500008F4B9C0833009F4C5C0843009F0B0C0BA
:101F600080912D0190915C03833009F4E2C080914F
:101F70005B0310922E0123E020932D0180936703D1
:101F80009093680380912F01863009F421CF539AF2
:101F9000239A1092B4001092B30086E080932F0130
:101FA00017CF80912F01863099F0539A239A10927F
:101FB000B4001092B300559854983B983A983D98C5
:101FC0003C9810922D0110922E0186E080932F01F3
:101FD00081E090E00090560302C0880F991F0A9498
:101FE000E2F7209165033091660382239323892BC6
:101FF00009F086C010922D01EBCE81E080932F0175
:10200000E7CEE0E0F0E0099580916E008D7F80934F
:102010006E0016BCE0E0F0E7099510922F01D8CED3
:1020200082E080932F01D4CE85E080932F01D0CE23
:1020300080912F01833009F4CBCE80912F01843021
:1020400009F4C6CE539A239A1092B4001092B300AA
:1020500083E080932F01BCCE80912F01863009F060
:10206000B7CE6091650380EB90E00E945B196091B0
:10207000660381EB90E00E945B196091690385E043
:1020800090E00E945B196091550389E090E00E9406
:102090005B19609167038CE090E00E945B1960918E
:1020A000680384E190E00E945B1953982398109292
:1020B000B4001092B30081E080932F018091560309
:1020C000811160CF85CE882339F28130C9F78091A4
:1020D0005703909158039093660380936503109281
:1020E0002D0150CF80912D01823071F180915A03E2
:1020F00010922E0192E090932D018093550342CFD0
:1021000081E080932D0164CE80912D01813051F0CA
:102110008091590310922E0191E090932D018093AC
:10212000690330CF80915903909169038913F2CFED
:1021300029CF8091680398131ACF80915B03209177
:102140006703821316CF1ECF80915A0390915503D7
:102150008913CECF17CFFC012AE08FEF9FEF31918B
:102160008327082E8295807F8025092E982F8295BF
:102170008F700826869598278927880F880F880FE3
:102180008025215061F708950FB6F894A4B12091ED
:1021900029032A2B24B921E030912903203029F08A
:1021A000000025B1232B25B904C000000000000069
:1021B00000C0000000000000309525B1232325B9A0
:1021C0002EEA2A95F1F72BEE30B735FF0AC0A4B9F5
:1021D00030912903309525B1232325B90FBE80E026
:1021E000089500002A9581F721E0309129032030DD
:1021F00029F0000025B1232B25B904C00000000000
:10220000000000C0000000000000309525B123232D
:1022100025B9000024E52A95F1F7FC018CE06191D5
:1022200070E0660F771F616072609AE041E050E0F5
:102230009A0126233723232B30912903203029F0BC
:10224000000025B1232B25B904C0000000000000C8
:1022500000C0000000000000309525B1232325B9FF
:10226000000021E52A95F1F7440F551F9A9501F7D3
:102270008A95A9F620B7206120BFA4B9309129031F
:10228000309525B1232325B90FBE81E00895A3E140
:10229000B0E0EDE4F1E10C940A157C011B016A0148
:1022A000FC0117821682838181FF66C3BE016F5FC6
:1022B0007F4F4B01F7019381F10193FD859193FFCE
:1022C00081911F01882309F453C3853239F493FDAA
:1022D000859193FF81911F01853239F4B70190E018
:1022E0000E94961856016501E5CF10E0512C20E0C0
:1022F0002032A0F48B3269F030F4803259F083320E
:1023000069F420612CC08D3239F0803339F42160BA
:1023100026C02260246023C0286021C027FD27C07A
:1023200030ED380F3A3078F426FF06C0FAE01F9FF0
:10233000300D1124132F13C06AE0569E300D112466
:10234000532E20620CC08E3221F426FD11C320646E
:1023500006C08C3611F4206802C0883641F4F101C1
:1023600093FD859193FF81911F018111C1CF9BEB5B
:10237000980F933018F42061805E06C09BE9980F97
:10238000933008F0AAC12F7E26FF16E02F73722E1D
:10239000853621F4F22FF0647F2E08C0863621F4B2
:1023A000622F6068762E02C01111115077FE07C0AF
:1023B0001C3348F444244394410E27E00BC01830EA
:1023C00030F4212F06C027E04CE3442E03C027E061
:1023D00017E0412C560174E0A70EB11CF601608194
:1023E000718182819381042DA4010E94A8176C0140
:1023F000098100FF02C003FF06C071FC07C072FC28
:1024000008C0612C08C03DE2632E05C02BE2622E9D
:1024100002C090E2692E802F8C7099F1662011F035
:1024200084E001C083E0851510F0512C0BC0581AD0
:1024300073FC08C0B70180E290E00E9496185A949D
:10244000C9F7F3CF662029F0B701862D90E00E94EE
:10245000961803FD03C000E910E002C00CE810E08C
:10246000F72DF0717F2EF8018491882309F476C24C
:1024700071108052B70190E00E9496180F5F1F4FB5
:10248000F2CF77FE0FC04C0C04FF04C08A81813369
:1024900009F44A94141474F5F8E0F41578F588E01A
:1024A000482E2CC076FC2AC0812F90E08C159D050B
:1024B0009CF06CEFC6166FEFD60674F0772D70683F
:1024C000772E0AC0E2E0F0E0EC0FFD1FE10FF11DF6
:1024D0008081803319F411501111F4CF77FE0EC0B2
:1024E00044244394410E812F90E0C816D9062CF461
:1024F0001C1904C04424439401C010E077FE07C0B7
:102500001C141D043CF496012F5F3F4F05C025E0CD
:1025100030E002C021E030E0662011F02F5F3F4F35
:10252000112331F0412F50E04F5F5F4F240F351FD3
:10253000452D50E02417350714F4521A01C0512CD0
:10254000872D897049F4552039F0B70180E290E079
:102550000E9496185A94F7CF662029F0B701862D6D
:1025600090E00E94961873FC09C0552039F0B7011D
:1025700080E390E00E9496185A94F7CF77FE5FC0F0
:102580009C2D8D2DD7FE02C090E080E0692E782E24
:1025900040E050E0C601841991099D878C8796011F
:1025A00026193709280D391D812F90E0EE27FF27C6
:1025B000E81BF90BFF87EE87FFEF6F167F0669F4C4
:1025C000B7018EE290E02B8B3A8B488B598B0E949F
:1025D0009618598948893A892B89C614D70454F02A
:1025E0006C857D85661577052CF4F901E40FF51FE0
:1025F000818101C080E371E0671A71084F5F5F4F0E
:10260000EE85FF856E167F066CF0B70190E02B8B90
:102610003A8B488B598B0E9496182B893A894889A6
:102620005989CACF6C147D0439F49A81963318F411
:10263000953311F404FF81E3B70190E04BC08A8128
:10264000813309F00F7EB70190E00E9496181111B6
:1026500005C074FE18C085E490E017C0B7018EE293
:1026600090E00E94961882E066246394680EF4015C
:10267000E80FF11D8081B70190E00E94961811507B
:1026800041F3862DF1CF85E690E0B7010E949618C0
:10269000D7FC05C0C114D10439F404FF05C0D1949E
:1026A000C194D1088DE201C08BE2B70190E00E9495
:1026B000961880E36AE0C616D1042CF08F5FFAE02A
:1026C000CF1AD108F7CFB70190E00E949618B70152
:1026D000C601C0960E94961841C1833631F08337F7
:1026E00079F0833509F058C021C0560172E0A70E79
:1026F000B11CF6018081898301E010E0640114C0FF
:102700005601F2E0AF0EB11CF601C080D18026FF69
:1027100003C0612F70E002C06FEF7FEFC6012B8B0B
:102720000E948B188C012B892F7715C05601F2E07F
:10273000AF0EB11CF601C080D18026FF03C0612F0F
:1027400070E002C06FEF7FEFC6012B8B0E948018F4
:102750008C012B892068722E23FD1AC0852D90E0F4
:1027600008171907A8F4B70180E290E00E949618B4
:102770005A94F4CFF60177FC859177FE81916F0131
:10278000B70190E00E94961851105A940150110917
:102790000115110579F7E2C0843611F0893651F53B
:1027A000560127FF09C0F4E0AF0EB11CF6016081AD
:1027B0007181828193810AC0F2E0AF0EB11CF601F3
:1027C00060817181882777FD8095982F022F0F7681
:1027D00097FF08C090958095709561957F4F8F4FBA
:1027E0009F4F00682AE030E0A4010E94F518C82E2F
:1027F000C8183EC0022F853721F40F7E2AE030E052
:102800001DC0097F8F3691F018F4883559F0B0C09B
:10281000803719F0883711F0ABC0006104FF09C0A0
:10282000046007C024FF08C0066006C028E030E04E
:1028300005C020E130E002C020E132E0560107FF90
:1028400009C0F4E0AF0EB11CF60160817181828194
:10285000938108C0F2E0AF0EB11CF6016081718176
:1028600080E090E0A4010E94F518C82EC8180F77E8
:1028700006FF0BC0202F2E7FC11650F404FF0AC0A4
:1028800002FD08C0202F2E7E05C0DC2C202F03C0A7
:10289000DC2C01C0D12E24FF0DC0FE01EC0DF11D7A
:1028A0008081803311F4297E09C022FF06C0D394B1
:1028B000D39404C0822F867809F0D39423FD13C0EB
:1028C00020FF06C01C2DD51418F4150D1D19D52C8C
:1028D000D51468F4B70180E290E02B8B0E94961823
:1028E000D3942B89F5CFD51410F45D1801C0512C69
:1028F00024FF12C0B70180E390E02B8B0E94961852
:102900002B8922FF17C021FF03C088E590E002C099
:1029100088E790E0B7010CC0822F867859F021FD3E
:1029200002C080E201C08BE227FD8DE2B70190E09A
:102930000E949618C11638F4B70180E390E00E9417
:1029400096181150F7CFCA94F401EC0DF11D808157
:10295000B70190E00E949618C110F5CF552009F4F8
:10296000C2CCB70180E290E00E9496185A94F6CF4C
:10297000F7018681978102C08FEF9FEF6396E2E1B6
:102980000C9426150E94DB070E94B001809118016B
:1029900090911901FC01E652FE4F1082FC01E552B4
:1029A000FE4F108288E091E09093200180931F01F8
:1029B00088EF90E090931E0180931D016FE776E011
:1029C00088E491E00E94D40880E090E00895A29FFE
:1029D000B001B39FC001A39F700D811D1124911DF3
:1029E000B29F700D811D1124911D089597FB072E34
:1029F00016F4009407D077FD09D00E94471507FC14
:102A000005D03EF4909581959F4F089570956195FE
:102A10007F4F08952F923F924F925F926F927F92D5
:102A20008F929F92AF92BF92CF92DF92EF92FF92DE
:102A30000F931F93CF93DF93CDB7DEB7CA1BDB0B8A
:102A40000FB6F894DEBF0FBECDBF09942A8839882F
:102A500048885F846E847D848C849B84AA84B98436
:102A6000C884DF80EE80FD800C811B81AA81B98142
:102A7000CE0FD11D0FB6F894DEBF0FBECDBFED0156
:102A80000895EE0FFF1F0590F491E02D0994AA1B05
:102A9000BB1B51E107C0AA1FBB1FA617B70710F049
:102AA000A61BB70B881F991F5A95A9F7809590957B
:102AB000BC01CD0108955058BB27AA270ED04DC1A7
:102AC0003ED130F043D120F031F49F3F11F41EF499
:102AD00033C10EF4E095E7FB29C1E92F4FD180F314
:102AE000BA17620773078407950718F071F49EF50B
:102AF00067C10EF4E0950B2EBA2FA02D0B01B90182
:102B000090010C01CA01A0011124FF27591B99F063
:102B1000593F50F4503E68F11A16F040A22F232F6F
:102B2000342F4427585FF3CF469537952795A795BF
:102B3000F0405395C9F77EF41F16BA0B620B730B66
:102B4000840BBAF09150A1F0FF0FBB1F661F771FD7
:102B5000881FC2F70EC0BA0F621F731F841F48F48C
:102B6000879577956795B795F7959E3F08F0B3CF12
:102B70009395880F08F09927EE0F979587950895FC
:102B80000CD0EBC0E3D040F0DAD030F021F45F3F5E
:102B900019F0CCC0511115C1CFC0F0D098F39923D2
:102BA000C9F35523B1F3951B550BBB27AA27621711
:102BB0007307840738F09F5F5F4F220F331F441F56
:102BC000AA1FA9F333D00E2E3AF0E0E830D091508E
:102BD0005040E695001CCAF729D0FE2F27D0660F7B
:102BE000771F881FBB1F261737074807AB07B0E8BA
:102BF00009F0BB0B802DBF01FF2793585F4F2AF0D0
:102C00009E3F510568F092C0DCC05F3FECF3983EF8
:102C1000DCF3869577956795B795F7959F5FC9F72C
:102C2000880F911D9695879597F90895E1E0660FB5
:102C3000771F881FBB1F621773078407BA0720F02E
:102C4000621B730B840BBA0BEE1F88F7E095089597
:102C500004D06894B111B5C0089598D088F09F57FA
:102C600090F0B92F9927B751A0F0D1F0660F771FD8
:102C7000881F991F1AF0BA95C9F712C0B13081F0B8
:102C80009FD0B1E008959CC0672F782F8827B85F48
:102C900039F0B93FCCF3869577956795B395D9F719
:102CA0003EF490958095709561957F4F8F4F9F4F23
:102CB0000895E89409C097FB3EF49095809570952F
:102CC00061957F4F8F4F9F4F9923A9F0F92F96E978
:102CD000BB279395F695879577956795B795F111ED
:102CE000F8CFFAF4BB0F11F460FF1BC06F5F7F4F8A
:102CF0008F4F9F4F16C0882311F096E911C077239C
:102D000021F09EE8872F762F05C0662371F096E8A4
:102D1000862F70E060E02AF09A95660F771F881F73
:102D2000DAF7880F9695879597F9089597F99F6731
:102D300080E870E060E008959FEF80EC0895002443
:102D40000A941616170618060906089500240A9410
:102D500012161306140605060895092E0394000C96
:102D600011F4882352F0BB0F40F4BF2B11F460FF25
:102D700004C06F5F7F4F8F4F9F4F089557FD90584E
:102D8000440F551F59F05F3F71F04795880F97FB2F
:102D9000991F61F09F3F79F08795089512161306E9
:102DA0001406551FF2CF4695F1DF08C01616170618
:102DB0001806991FF1CF869571056105089408954D
:102DC000E894BB2766277727CB0197F908950BD0A6
:102DD000C4CFB5DF28F0BADF18F0952309F0A6CFED
:102DE000ABCF1124EECFCADFA0F3959FD1F3950F9F
:102DF00050E0551F629FF001729FBB27F00DB11D7F
:102E0000639FAA27F00DB11DAA1F649F6627B00D0E
:102E1000A11D661F829F2227B00DA11D621F739FF7
:102E2000B00DA11D621F839FA00D611D221F749F05
:102E30003327A00D611D231F849F600D211D822F4C
:102E4000762F6A2F11249F5750408AF0E1F0882393
:102E50004AF0EE0FFF1FBB1F661F771F881F9150A0
:102E60005040A9F79E3F510570F060CFAACF5F3F59
:102E7000ECF3983EDCF3869577956795B795F795D3
:102E8000E7959F5FC1F7FE2B880F911D969587955B
:102E900097F908958F929F92AF92BF92CF92DF924F
:102EA000EF92FF92CF93DF93EC01688179818A8161
:102EB0009B81611571058105910521F464E279ED2D
:102EC0008BE597E02DE133EF41E050E00E947C1963
:102ED00049015A019B01AC01A7EAB1E40E946919BA
:102EE0006B017C01ACEEB4EFA50194010E9477194F
:102EF000C60ED71EE81EF91EF7FE06C081E0C81AEE
:102F0000D108E10880E8F80AC882D982EA82FB8207
:102F1000C6019F77DF91CF91FF90EF90DF90CF9028
:102F2000BF90AF909F908F9008950E944A17089588
:102F300081E291E00E944A170895A0E0B0E08093FA
:102F4000210190932201A0932301B09324010895BD
:102F5000283008F027E03327DA01990F311D87FD6B
:102F6000916000966105710539F432602E5F3D93E2
:102F700030E32A95E1F708959F3F30F080387105DE
:102F8000610509F03C5F3C5F3D93913008F080683B
:102F9000911DDF93CF931F930F93FF92EF92192F01
:102FA000987F9695E92F96959695E90FFF27E25120
:102FB000FF4F99273327EE24FF24A701E70105904F
:102FC0000894079428F4360FE71EF81E491F511D78
:102FD000660F771F881F991F0694A1F70590079425
:102FE00028F4E70EF81E491F561FC11D770F881FD2
:102FF000991F661F0694A1F70590079428F4F80E10
:10300000491F561FC71FD11D880F991F661F771FA5
:103010000694A1F70590079420F4490F561FC71F87
:10302000D81F990F661F771F881F0694A9F78491F0
:103030001095177041F0D695C79557954795F79419
:10304000E7941A95C1F7E4E9F0E0689415901591BA
:1030500035916591959105907FE27395E118F10A9C
:10306000430B560BC90BD009C0F7E10CF11E431FEF
:10307000561FC91FD01D7EF4703311F48A95E6CF18
:10308000E894015030F0080F0AF40027021708F402
:10309000202F2395022F7A3328F079E37D932A9508
:1030A000E9F710C07D932A9589F606949795679560
:1030B000379517951794E118F10A430B560BC90B76
:1030C000D00998F023957E9173957A3308F070E3D8
:1030D0007C932013B8F77E9170617D9330F08395D7
:1030E00071E37D9370E32A95E1F71124EF90FF904F
:1030F0000F911F91CF91DF91992787FD90950895AA
:10310000FC010590615070400110D8F780959095B2
:103110008E0F9F1F0895FC016150704001900110B7
:10312000D8F7809590958E0F9F1F08950F931F934A
:10313000CF93DF93182F092FEB018B8181FD03C003
:103140008FEF9FEF20C082FF10C04E815F812C81E6
:103150003D81421753077CF4E881F9819F012F5F7D
:103160003F4F39832883108306C0E885F985812F76
:103170000995892B29F72E813F812F5F3F4F3F8390
:103180002E83812F902FDF91CF911F910F91089562
:103190000F931F93CF93DF93E0916C03F0916D0336
:1031A000238121FF1BC0EC0100E010E089916091B8
:1031B0006C0370916D03DB011896ED91FC911997EA
:1031C000882331F00995892B89F30FEF1FEFEECF9C
:1031D0008AE00995892B11F4C80102C08FEF9FEF97
:1031E000DF91CF911F910F910895FA01AA272830FE
:1031F00051F1203181F1E8946F936E7F6E5F7F4FC4
:103200008F4F9F4FAF4FB1E03ED0B4E03CD0670F3F
:10321000781F891F9A1FA11D680F791F8A1F911D92
:10322000A11D6A0F711D811D911DA11D20D009F4E2
:1032300068943F912AE0269F11243019305D319324
:10324000DEF6CF010895462F4770405D4193B3E00D
:103250000FD0C9F7F6CF462F4F70405D4A3318F0B4
:10326000495D31FD4052419302D0A9F7EACFB4E065
:10327000A6959795879577956795BA95C9F700971D
:103280006105710508959B01AC010A2E06945795BE
:10329000479537952795BA95C9F7620F731F841F15
:1032A000951FA01D0895F999FECF92BD81BDF89A92
:1032B000992780B50895262FF999FECF1FBA92BDA0
:1032C00081BD20BD0FB6F894FA9AF99A0FBE019607
:1032D00008950E94E714A59F900DB49F900DA49FA0
:1032E000800D911D11240895B7FF0C9469190E9457
:1032F0006919821B930B0895052E97FB1EF4009409
:103300000E94931957FD07D00E949B1907FC03D018
:103310004EF40C94931950954095309521953F4F5C
:103320004F4F5F4F089590958095709561957F4FB1
:103330008F4F9F4F0895A1E21A2EAA1BBB1BFD01C0
:103340000DC0AA1FBB1FEE1FFF1FA217B307E40784
:10335000F50720F0A21BB30BE40BF50B661F771FDC
:10336000881F991F1A9469F76095709580959095BC
:0E3370009B01AC01BD01CF010895F894FFCF81
:10337E000000000200000000EF000000000000014D
:10338E00041005141106153F3001AADA07D707D627
:0C339E00070100000046756C6C2E00005A
:00000001FF
